:100000000C943A000C9488000C9400000C940000AE
:100010000C9400000C9400000C9400000C94000060
:100020000C9400000C94A4000C9400000C940000AC
:100030000C9400000C9400000C9400000C94000040
:100040000C9400000C9400000C9400000C94000030
:100050000C9400001E00030F0A000003C0F9A4B0B6
:10006000999282F880900800040054000A00600110
:100070005C000000F894EE27ECBBF1E0FBBFEBBFA7
:10008000E5BF8DE0A2E0BB27ED938A95E9F780E01C
:1000900094E0A0E6ED930197E9F7E6E6F0E08591BC
:1000A0009591009761F0A591B59105901590BF01CC
:1000B000F00105900D920197E1F7FB01F0CFEFE51C
:1000C000EDBFE4E0EEBFC0E6D1E00C946E01E2E0EB
:1000D000E3BFE8E3E2BFE0E0ECBFE1E0E9BF789432
:1000E0000895AA93E881F0E0309711F4F89405C0E0
:1000F000E130A0E0FA0709F4789493C1EBB7E0642B
:10010000EBBFE2E0E5BFE0E0E4BFE0E4EABF089572
:10011000AA93EA93EFB7EA93829911C0829BFECF2C
:10012000E0916F01EF5FE0936F01A0916F01A2304A
:1001300018F0E0E0E0936F01E0E0E0937001E991F6
:10014000EFBFE991A99118950A921A92FA926A93CF
:100150007A938A939A93AA93BA93EA93FA93EFB70E
:10016000EA93A9E7B1E0ED91FD913196FE93EE930C
:10017000A0917901B0917A01A838E3E1BE0708F4B3
:100180009DC0E0916F01E03009F093C0E0917001F3
:10019000E030D9F4EB2DE80D9E2E90926A01E82D07
:1001A000EF5FE0936B01EB2DEF5FE0936C01E62DC9
:1001B000E70DAE2EA0926D01E72DEF5FDE2EE62D4E
:1001C000EF5FCE2EE1E0E0937001E0916E01E03050
:1001D000F1F56AD1A0916A01A030C4F1E0916A0101
:1001E000EA937CD1E0916A01EA937FD1E0916A01C0
:1001F000E150E0936A01A0916B01A13064F0E091BD
:100200006B01E150E0936B0156D1E0916B0174D129
:10021000E0916B0179D1E0916B01E030B9F4A091EC
:100220006C01A1309CF0E0916C01E150E0936C0115
:1002300047D1E0916C01E03019F4E1E0E0936E0108
:10024000E0916C0159D1E0916C015ED12FC0A09179
:100250006E01A13071F53BD1A0916D01A03034F158
:10026000E0916D0149D1E0916D014ED1E0916D01B8
:10027000E150E0936D01E1E0DE1634F0DA9408D14C
:10028000DA922CD1DA9231D1DD2081F4E1E0CE1680
:100290006CF0CA9402D1CC2029F4E0E0E0936E0126
:1002A000E0937001CA921AD1CA921FD1A1E7B1E0BE
:1002B000BAD0E0E0E0937901E0937A01E8E3E2BFAD
:1002C000E991EFBFF991E991B991A991999189913A
:1002D00079916991F990199009901895EFEFEABB1F
:1002E000E7BBE4BB889A899A8B9A8C9A8A988D98F6
:1002F0008E98E0E0EBBBEFEFE5BBC098C198C298E9
:10030000C3980AD1FBDEE3DEA1E0EBDEA1E7B1E0BA
:100310008AD0A0916F01A130C9F4D898DE98DA98FC
:10032000C098DB98C398DD98C198D99ADF9ADC9A77
:10033000C29AA8EEB3E00E94A602D998DF98DC9892
:10034000C298A8EEB3E00E94A602E3CFDFCFFFCFB2
:10035000BA93AA93EAD00E94C702AA81BB81EC9308
:10036000E4D00E94CC02A881B981EC93259608952F
:10037000AA93E881F0E0309711F4CED052C0E1307A
:10038000A0E0FA0731F4C498D7D0919A939A949A3E
:1003900048C0E230A0E0FA0731F4C49AC598C69A82
:1003A000C79ACFD03EC0E330A0E0FA0731F4C49A38
:1003B000C59AC698C79AC5D034C0E430A0E0FA0701
:1003C00031F4C49AC59AC69AC798BBD02AC0E53002
:1003D000A0E0FA0749F4C49AC59AC69AC79A9098B9
:1003E000919A939A949A1DC0E630A0E0FA0731F4EE
:1003F000C49AA2D09198939A949A13C0E730A0E03F
:10040000FA0731F4C49A98D0919A9398949A09C0B3
:10041000E830A0E0FA0729F4C49A8ED0919A939A12
:10042000949821960895BA93AA9328971A9310E066
:100430001830A8F4E12FF0E0DE011196EA0FFB1F5F
:100440000F01A985BA85EE27A10FBE1FEC91F0E040
:10045000E05AFE4FE081D001EC931F5FE9CF10E03E
:10046000183098F4E12FF0E0DE011196AE0FBF1FB7
:10047000EC91E5BBA12FAF5F7BDFA1E0B0E00E9474
:10048000A602A0E075DF1F5FEBCF18812B960895C1
:10049000D89ADE9AD998DF9804C0D898DE98D99A6D
:1004A000DF9ADA98C0980895D898DE98D998DF989E
:1004B000DA9AC09A0895DB9AC39ADC98C29804C06D
:1004C000DB98C398DC9AC29ADD98C1980895DB98AE
:1004D000C398DC98C298DD9AC19A0895E2E7F1E0EA
:1004E000FA93EA93A1E7B1E033CFE6E7F1E0FA93BC
:1004F000EA93A5E7B1E02CCFEA93E4E7F1E0FA93C1
:10050000EA93A3E7B1E024CFEA93E8E7F1E0FA93B6
:10051000EA93A7E7B1E01CCFC49AC59AC69AC79AD6
:10052000909A919A939A949A0895AC81B0E0A7FD1D
:10053000BFEFEAE0F0E00895C59AC69AC79A909A8C
:100540000895909A919A939A949A0895109639F0F2
:1005500080ED97E00197F1F7A8951197C9F70895F5
:10056000F195E195F04008950024112490E1AA0F3F
:10057000BB1F001C111C0E1A1F0A18F40E0E1F1EA2
:1005800001C0A1609A9599F7FD01D001089512D09C
:10059000EBDF0EF4E5DF0895E894B7FF04C0A09503
:1005A000B09511966894F7FDDBDFDEDFFD010EF4F8
:1005B000D7DF0895E894F7FF02C0D2DF6894B7FF51
:1005C00006C0A095B095119600F8039400FA08951E
:00000001FF
